:100000000C9474020C949C020C949C020C949C0220
:100010000C949C020C949C020C949C020C949C02E8
:100020000C949C020C949C020C949C020C949C02D8
:100030000C949C020C949C020C949C020C949C02C8
:100040000C94220C0C949C020C940F0F0C94410FF6
:100050000C949C020C949C020C949C020C949C02A8
:100060000C94F70A0C949C0248454C50002D2D2D01
:100070002D2D2D2D2D2D2D2D2D2D2D2D2D2D2D00DD
:10008000417661696C61626C6520636F6D6D616E54
:100090006473005472792068656C70203C636D64F1
:1000A0003E20666F72206D6F726520696E666F20EC
:1000B00061626F7574206561636820636F6D6D6147
:1000C0006E6400496E7465726368616E6765207660
:1000D000657273696F6E3A2000496E746572636869
:1000E000616E676520636F6E6669677572617469BA
:1000F0006F6E2068656C700053796E74617820654E
:1001000072726F7220706C656173652070726F76A9
:10011000696465206120636F6D6D616E64004F4B93
:100120002063726561746F72204944207365742086
:1001300000455252204E6F2063726561746F7220C9
:10014000494420737570706C696564004F4B20667C
:1001500069726D776172652049442073657420006F
:10016000455252204E6F206669726D77617265202C
:10017000494420737570706C696564004F4B204969
:100180003243206164647265737320736574200068
:10019000455252204E6F2061646472657373207300
:1001A0007570706C696564004F4B20454550524F27
:1001B0004D20636C6561726564007D0022002263DE
:1001C0006F6D70696C655F64617465223A2200220C
:1001D0002C002266775F76657273696F6E223A2211
:1001E00000222C002269635F76657273696F6E224C
:1001F0003A22002C00226932635F61646472657385
:1002000073223A002C0066616C7365007472756528
:1002100000227573655F637573746F6D5F616464ED
:1002200072223A002C0022756E646566696E656400
:1002300022002263726561746F724944223A002C75
:100240000022756E646566696E65642200226669C7
:10025000726D776172654944223A007B003E3E0030
:100260000A456E74657220636F6D6D616E642C203B
:10027000666F6C6C6F776564206279204E4C2E201F
:10028000547970652048454C5020666F72206D6F20
:1002900072652E00496E7465726368616E676520D1
:1002A0007665723A20005365747320746865206324
:1002B000726561746F722069642E200A0A20202002
:1002C00020202020202020202020202020206567A2
:1002D0003A206349442030783039207365747320A4
:1002E0007468652063726561746F7220696420743C
:1002F0006F2030783039005365747320746865203E
:100300006669726D776172652069642E200A0A2021
:1003100020202020202020202020202020202020DD
:1003200065673A204649442030783032207365743E
:100330007320746865206669726D776172652069E3
:100340006420746F203078303200536574732074E9
:10035000686520493243206164647265737320616B
:100360006E6420637573746F6D206669726D77615A
:10037000726520666C61672E0A0A202020202020EA
:10038000202020202020202020202065673A20499E
:100390003243203078353720312073657473206103
:1003A0006464726573732030783537202620637556
:1003B00073746F6D20666C6167206269740050729F
:1003C000696E7473206F757420616C6C206F662089
:1003D00074686520696E666F726D6174696F6E20F6
:1003E00061626F75742074686973206669726D77D5
:1003F00061726500436C6561727320746865206585
:100400006570726F6D2073657474696E67730050E8
:1004100072696E74732074686973206C6973742ECA
:10042000205472792048454C50203C434D443E2096
:10043000666F72206D6F726500200020726D3A2029
:10044000004455523A200049324320616464726589
:1004500073733A200055736520637573746F6D3A3A
:10046000200054657374204261636B7061636B207C
:100470006669726D77617265202D2044454255474B
:10048000204D4F4445000000000800020100000319
:100490000407000000000000000001020408102012
:1004A0004080010204081020010204081020040406
:1004B000040404040404020202020202030303030C
:1004C00003030000000023002600290000000000B4
:1004D000250028002B0000000000240027002A002F
:1004E000A4089E0A710FC10811241FBECFEFD8E0E7
:1004F000DEBFCDBF11E0A0E0B1E0ECEEFDE202C056
:1005000005900D92A03CB107D9F723E0A0ECB1E033
:1005100001C01D92AD3CB207E1F714E0C6EED4E095
:1005200004C02297FE010E943614C03ED107C9F7CD
:100530000E94DA130C94E9160C9400006BE572E04B
:100540008091D1019091D2010E94F20F6DE472E08E
:100550008091D1019091D2010E94F20F6091CA0165
:100560008091D1019091D201611105C061E472E0E6
:100570000E94F20F04C04AE050E00E942E116FE387
:1005800072E08091D1019091D2010E94F20F62E35A
:1005900072E08091D1019091D2010E94F20F60919E
:1005A000C9018091D1019091D201611105C066E22B
:1005B00072E00E94F20F04C04AE050E00E942E1147
:1005C00064E272E08091D1019091D2010E94F20F19
:1005D00061E172E08091D1019091D2010E94F20F0D
:1005E0002091C8018091D1019091D201222319F06C
:1005F0006CE072E002C066E072E00E94F20F64E01C
:1006000072E08091D1019091D2010E94F20F65EFCA
:1006100071E08091D1019091D2010E94F20F4AE0E5
:1006200050E06091C7018091D1019091D2010E9468
:100630002E1163EF71E08091D1019091D2010E945F
:10064000F20F64EE71E08091D1019091D2010E948D
:10065000F20F6BE071E08091D1019091D2010E9484
:10066000231061EE71E08091D1019091D2010E943E
:10067000F20F62ED71E08091D1019091D2010E9460
:10068000F20F61EC71E08091D1019091D2010E9452
:1006900015106FEC71E08091D1019091D2010E9410
:1006A000F20F6EEB71E08091D1019091D2010E9426
:1006B000F20F61E171E08091D1019091D2010E942D
:1006C00023106CEB71E08091D1019091D2010E94D6
:1006D000F20F6AEB71E08091D1019091D2010C94FC
:1006E00030100C949C16CF93DF93CDB7DEB72A97CA
:1006F0000FB6F894DEBF0FBECDBFFC01248135815B
:10070000232B49F461E371E08091D1019091D201F2
:100710000E94301026C020E030E04AE050E0BE01E8
:100720006F5F7F4F0E944A13CE0101960E942B16E5
:100730008093C901682F8BE090E00E94A4166EE1BF
:1007400071E08091D1019091D2010E94F20F40E1BD
:1007500050E06091C9018091D1019091D2010E9435
:1007600035112A960FB6F894DEBF0FBECDBFDF91CC
:10077000CF910895CF93DF9381EC91E00E944C11CB
:100780008BEC91E00E944C11C5E5D2E0CE010897B8
:100790000E944C112D9781E0C33DD807B9F7DF9136
:1007A000CF910895DF92EF92FF920F931F93CF9313
:1007B000DF93CDB7DEB766970FB6F894DEBF0FBEF6
:1007C000CDBF8C01FC0184819581892B09F441C046
:1007D00065E871E0CE0101960E94BA1165E871E00A
:1007E000CE0107960E94BA1160E2C8010E949013E0
:1007F000D82EE82EFF24E7FCF094970140E050E06B
:10080000B801CE010D960E949413BE01635F7F4F25
:10081000CE0101960E944712CE010D960E944C1106
:100820001D1404F5F80124813581A7014F5F5F4F46
:10083000B801CE010D960E949413BE01635F7F4FF5
:10084000CE0107960E944712CE010D960E944C11D0
:100850000FC060E971E08091D1019091D2010E94B6
:1008600030104CC06FE071E0CE0107960E94531229
:1008700020E030E04AE050E0BE01635F7F4FCE01F0
:1008800001960E944A13CE010D960E942B1680936A
:10089000C701682F88E090E00E94A4166CE771E021
:1008A0008091D1019091D2010E94F20F40E150E07D
:1008B0006091C7018091D1019091D2010E943511C0
:1008C00060E070E0CE0107960E943813FC01808141
:1008D000813321F481E08093C80102C01092C801E5
:1008E0006091C80189E090E00E94A416CE010796AD
:1008F0000E944C11CE0101960E944C1166960FB6D3
:10090000F894DEBF0FBECDBFDF91CF911F910F9145
:10091000FF90EF90DF900895CF93DF93CDB7DEB7D0
:100920002A970FB6F894DEBF0FBECDBFFC0124811D
:100930003581232B49F460E671E08091D1019091DB
:10094000D2010E94301026C020E030E04AE050E0A2
:10095000BE016F5F7F4F0E944A13CE0101960E9435
:100960002B168093CA01682F8AE090E00E94A4169B
:100970006CE471E08091D1019091D2010E94F20F5C
:1009800040E150E06091CA018091D1019091D20183
:100990000E9435112A960FB6F894DEBF0FBECDBF68
:1009A000DF91CF910895CF93DF93EC018BE090E03E
:1009B0000E9471038F3F11F08093C9018AE090E09B
:1009C0000E9471038F3F11F08093CA0189E090E08B
:1009D0000E9471038F3F31F091E0811101C090E0DE
:1009E0009093C80188E090E00E9471038F3F11F05E
:1009F0008093C701BE0181EC91E0DF91CF910C940F
:100A000027121F93CF93DF9300D000D000D0CDB733
:100A1000DEB766E271E08091D1019091D2010E942F
:100A2000541010E080910601181758F4E12FF0E0FF
:100A3000E95FFE4F80816FEF90E00E94A4161F5F78
:100A4000F1CF61EC71E0CE0101960E943E12CE0121
:100A500001960E94D304CE0101960E944C1168EACF
:100A600071E08091D1019091D2010E9430102696C0
:100A70000FB6F894DEBF0FBECDBFDF91CF911F91AF
:100A80000895CF92DF92EF92FF920F931F93CF932F
:100A9000DF93CDB7DEB72D970FB6F894DEBF0FBE4C
:100AA000CDBF6C017B018A018091C0018A30D0F5F5
:100AB00065E871E0CE0106960E94BA1145E050E06B
:100AC000B601CE0101960E948516B701CE010696A9
:100AD0000E9427121D870C870091C0018DE0089F9E
:100AE000800111240D521E4F85E0FE013196D80180
:100AF00001900D928A95E1F7BE016A5F7F4FC801B0
:100B000005960E9427128C859D85F801948783871E
:100B10008091C0018F5F8093C001CE0106960E9434
:100B20004C1108C064E471E08091D1019091D20130
:100B30000E9454102D960FB6F894DEBF0FBECDBFA5
:100B4000DF91CF911F910F91FF90EF90DF90CF90A9
:100B500008950F931F93CF93DF9300D000D000D060
:100B6000CDB7DEB78C016FE074E0CE0101960E9434
:100B7000A4124EED57E0BE016F5F7F4F8AE591E012
:100B80000E944105CE0101960E944C1164EF73E072
:100B9000CE0101960E94A41241E055E0BE016F5FB4
:100BA0007F4F8FE591E00E944105CE0101960E94A2
:100BB0004C116EEB73E0CE0101960E94A4124EE937
:100BC00052E0BE016F5F7F4F83E691E00E944105D6
:100BD000CE0101960E944C116AE473E0CE010196A9
:100BE0000E94A41242ED53E0BE016F5F7F4F88E682
:100BF00091E00E944105CE0101960E944C1167EFE1
:100C000072E0CE0101960E94A4124CE854E0BE01AD
:100C10006F5F7F4F8CE691E00E944105CE01019607
:100C20000E944C1166EA72E0CE0101960E94A41265
:100C300043E753E0BE016F5F7F4F80E791E00E9482
:100C40004105CE0101960E944C11B801CE010196DA
:100C50000E943E12CE0101960E94D304CE0101965D
:100C60000E944C1126960FB6F894DEBF0FBECDBF82
:100C7000DF91CF911F910F91089560E082E00E9473
:100C8000320D82E390E00E94C30C82E00E94A10D2D
:100C90008130910511F082E090E0909356028093AC
:100CA000550208950F931F93CF93DF9300D000D088
:100CB00000D0CDB7DEB78B019093D2018093D101E4
:100CC00064E972E00E94F20F6BE071E08091D10163
:100CD0009091D2010E94541060E672E08091D1019F
:100CE0009091D2010E9430106DE572E08091D101A7
:100CF0009091D2010E943010B801CE0101960E945D
:100D00003E12CE0101960E94A905CE0101960E94D5
:100D10004C1126960FB6F894DEBF0FBECDBFDF9103
:100D2000CF911F910F91089589E090E00E94710387
:100D3000982F8F3F19F081E0911101C080E0089554
:100D400088E090E00E9471038F3F09F480E00895ED
:100D5000BF92CF92DF92EF92FF920F931F93CF93A8
:100D6000DF9300D000D000D0CDB7DEB77C01D12C0E
:100D70008DE0C82E8091C001D816E0F40D2D10E052
:100D8000C09EB001C19E700D11246D527E4FCE01E8
:100D900001960E94BA11BE016F5F7F4FC7010E948A
:100DA000FF12B82ECE0101960E944C11B11004C062
:100DB000D394E0CF0FEF1FEFC80126960FB6F8943B
:100DC000DEBF0FBECDBFDF91CF911F910F91FF907E
:100DD000EF90DF90CF90BF900895DF92EF92FF9257
:100DE0000F931F93CF93DF93CDB7DEB762970FB604
:100DF000F894DEBF0FBECDBF8C0165E871E0CE0177
:100E000001960E94BA1165E871E0CE0107960E9432
:100E1000BA1160E2C8010E949013D82EE82EFF2478
:100E2000E7FCF094970140E050E0B801CE010D9648
:100E30000E949413BE01635F7F4FCE0101960E9412
:100E40004712CE010D960E944C111D14B4F4F80106
:100E500024813581A7014F5F5F4FB801CE010D9608
:100E60000E949413BE01635F7F4FCE0107960E94DC
:100E70004712CE010D960E944C11BE016F5F7F4F4D
:100E8000CE010D960E943E12CE010D960E94A8063C
:100E9000182FCE010D960E944C1117FD2DC08DE02C
:100EA0001802F0011124ED52FE4F03851485BE0196
:100EB000695F7F4FCE010D960E943E12CE010D96C6
:100EC000F8010995CE010D960E944C11CE010796AE
:100ED0000E944C11CE0101960E944C1162960FB6F1
:100EE000F894DEBF0FBECDBFDF91CF911F910F9160
:100EF000FF90EF90DF90089564E771E08091D10159
:100F00009091D2010E945410E1CFCF93DF9300D093
:100F100000D000D0CDB7DEB78091D1019091D20141
:100F2000DC01ED91FC910480F581E02D0995181606
:100F30001906DCF58091D1019091D201DC01ED918F
:100F4000FC910680F781E02D09958A30A9F46BECBD
:100F500071E0CE0101960E943E12CE0101960E94E0
:100F6000ED06CE0101960E944C1165E871E08BEC14
:100F700091E00E945312D0CF9FEF980F993060F20A
:100F800095EF980F953140F2682FCE0101960E949F
:100F90006B12BE016F5F7F4F8BEC91E00E94D91204
:100FA000CE0101960E944C11B7CF26960FB6F89449
:100FB000DEBF0FBECDBFDF91CF910895CF92DF92FC
:100FC000EF92FF920F931F93CF93DF9300D000D047
:100FD00000D0CDB7DEB7FC01248135812230310548
:100FE000E0F1BC01CE0101960E943E12CE010196B5
:100FF0000E94A806082FCE0101960E944C118091F4
:10100000D1019091D20107FF05C068EF70E00E9406
:10101000301023C068E670E00E9430108DE00802B6
:1010200080011124B8016D527E4F8091D1019091C1
:10103000D2010E94231066E871E08091D101909165
:10104000D2010E942310B80168527E4F8091D101D5
:101050009091D2010E94421068C069ED70E08091C9
:10106000D1019091D2010E94301063EC70E0809128
:10107000D1019091D2010E94F20F6BE071E080915A
:10108000D1019091D2010E94541063E970E08091E7
:10109000D1019091D2010E94301060E870E08091FF
:1010A000D1019091D2010E9430106DE670E08091E4
:1010B000D1019091D2010E94301093EDE92E91E080
:1010C000F92E00E010E023E0C22ED12C65E871E09B
:1010D000C70105960E94E012811119C0B7018091E5
:1010E000D1019091D2010E942310C801B6010E9443
:1010F000EA139C018091D1019091D201232B19F424
:101100000E942C1004C064E871E00E9423100F5F5D
:101110001F4FFDE0EF0EF11C0A301105B9F680916A
:10112000D1019091D2010E942C1026960FB6F8940E
:10113000DEBF0FBECDBFDF91CF911F910F91FF900A
:10114000EF90DF90CF900895CF93DF93C0E0D0E091
:1011500065E871E0CE0188529E4F0E94BA112D962B
:10116000C238D105A9F765E871E08BEC91E00E94E7
:10117000BA1165E871E081EC91E0DF91CF910C94B8
:10118000BA110C94BA03CF93DF9300D000D000D0F3
:10119000CDB7DEB70E943D06809155029091560270
:1011A00081309105D9F426E040E855E260E070E036
:1011B0008BE293E00E94AD0E69E871E0CE010196EA
:1011C0000E94BA11BE016F5F7F4F8BE293E00E94D5
:1011D0005206CE0101960E944C1119C00297B9F433
:1011E0000E949406811102C081E606C00E94A006FA
:1011F0008823D1F30E94A006682F8FE592E00E9419
:10120000860A69E679E08FE592E00E94990A80916A
:10121000550290915602019749F026E040E855E2C8
:1012200060E070E08BE293E00E94AD0E62E674E055
:101230008BE293E00E94301065E574E08BE293E06E
:101240000E94F20F0E949406682F70E04AE050E07E
:101250008BE293E00E94091167E474E08BE293E073
:101260000E94F20F0E94A0064AE050E0682F8BE235
:1012700093E00E94351126960FB6F894DEBF0FBE9C
:10128000CDBFDF91CF9108950E946C0C28EE33E022
:1012900040E050E00E94FE13209357023093580222
:1012A0004093590250935A020895809155029091AB
:1012B00056028230910541F40E94440961E070E0D9
:1012C00080E090E00C949B0C019711F40C9485073E
:1012D0000895CF93DF938091570290915802209107
:1012E000590230915A0230935B0220935C02909332
:1012F0005D0280935E0244E050E06BE572E08FE5B2
:1013000092E00E94100A61E474E08BE293E00E9494
:10131000F20F40915702509158026091590270911A
:101320005A022AE030E08BE293E00E9421116BE345
:1013300074E08BE293E00E94F20FCBE5D2E069917A
:101340004AE050E08BE293E00E942E1169E374E0E2
:101350008BE293E00E94F20F82E0CF35D80779F755
:101360008BE293E0DF91CF910C942C10809192024C
:1013700090E020919302821B91090895209193029D
:1013800080919202281750F4E22FF0E0EC56FD4FC6
:10139000808190E02F5F2093930208958FEF9FEF5D
:1013A0000895E091930280919202E81730F4F0E002
:1013B000EC56FD4F808190E008958FEF9FEF0895E8
:1013C0000895E0916B02F0916C023097E1F030915A
:1013D0009302209192023217B0F040E0242F30E0C7
:1013E0002617370754F4DC01A20FB31F5C91D90113
:1013F000AC56BD4F5C934F5FF1CF10929302609358
:101400009202CB0109940895E0916D02F0916E0271
:10141000309729F010927102109270020994089589
:10142000CF92DF92EF92FF920F931F93CF93DF93B0
:101430007C01CB018A0120916F02222389F0EB010C
:101440006B01C40ED51ECC15DD0569F06991D7017D
:10145000ED91FC910190F081E02DC7010995F3CF4A
:10146000642F0E94C40AC801DF91CF911F910F9190
:10147000FF90EF90DF90CF900895CF93DF931F926E
:10148000CDB7DEB7698320916F022223D1F020917E
:101490007002203240F021E030E0FC0133832283EF
:1014A00080E090E015C080917102E82FF0E0EE58E6
:1014B000FD4F998190838F5F8093710280937002BA
:1014C00005C061E0CE0101960E94C40A81E090E06F
:1014D0000F90DF91CF910895FC011382128248EEA4
:1014E00053E060E070E0448355836683778383E94B
:1014F00091E091838083089510929302109292025A
:1015000010927102109270020C94A20ACF93DF9392
:10151000EC01862F0E94C00A84E09AE00E94E20A51
:1015200081EE99E00E94DD0ACE01DF91CF910C940B
:101530007C0A70936E0260936D0208958FE592E0CD
:101540000C946C0A1092210381E080931F03109287
:101550001E0361E082E10E946B0D61E083E10E9465
:101560006B0DE9EBF0E080818E7F808380818D7F41
:10157000808388E48093B80085E48093BC0008955C
:10158000880F8093BA000895613298F42091210366
:10159000243089F46093D602FC0188ED92E0DC01EE
:1015A0002A2F281B261718F421912D93F9CF80E0BC
:1015B000089581E0089582E0089590931B0380933D
:1015C0001A03089590931D0380931C03089585EDDD
:1015D0008093BC008091BC0084FDFCCF109221035D
:1015E000089585EC8093BC001092210308951F920A
:1015F0000F920FB60F9211242F933F934F935F9347
:101600006F937F938F939F93AF93BF93EF93FF93CA
:101610008091B900887F803609F49CC068F58832D3
:1016200009F45BC090F4803109F454C038F4882385
:1016300009F4F3C0883009F44DC0F3C0883109F4CF
:101640004CC0803209F45DC0ECC0803409F468C03D
:1016500048F4803309F455C0883309F0E2C0809320
:10166000B402A6C0803509F44FC0883509F45DC0C6
:10167000883409F0D6C0D3C0883909F4C4C0A8F4AE
:10168000883709F467C038F4883609F463C08037B6
:1016900009F460C0C6C0883809F4B5C0803909F4BF
:1016A0005FC0803809F0BDC05BC0803B09F483C0D7
:1016B00038F4803A09F466C0883A09F47CC0B1C0B5
:1016C000803C09F4A4C0883C09F4A1C0883B09F41B
:1016D00087C0A7C08091200310C09091F90280912B
:1016E000F802981770F5E091F90281E08E0F80936F
:1016F000F902F0E0E650FD4F80818093BB0085EC5D
:1017000083C08093B4028BC0E091F90281E08E0F18
:101710008093F9028091BB00F0E0E650FD4F80839A
:101720009091F9028091F8026BC0E091F90281E09A
:101730008E0F8093F9028091BB00F0E0E650FD4FE0
:10174000808380911F0381116AC081E080931E0312
:1017500084EA5EC083E0809321031092B502CFCF6C
:101760008091B502803208F04EC0E091B50281E070
:101770008E0F8093B5028091BB00F0E0EA54FD4FDC
:101780008083BDCF8091B502803230F4E091B50204
:10179000F0E0EA54FD4F10826091B50270E0E091F4
:1017A0001A03F0911B0386EB92E009951092B502A3
:1017B0000E94F10A36C084E0809321031092D70280
:1017C0001092D602E0911C03F0911D0309958091BF
:1017D000D602811105C081E08093D6021092D80212
:1017E000E091D70281E08E0F8093D702F0E0E852BB
:1017F000FD4F80818093BB009091D7028091D602EB
:10180000981708F47CCF85E88093BC000AC085EC6B
:101810008093BC001092210304C01092B4020E9475
:10182000E70AFF91EF91BF91AF919F918F917F91C7
:101830006F915F914F913F912F910F900FBE0F903D
:101840001F9018951F920F920FB60F9211242F938D
:101850003F938F939F93AF93BF9380912303909176
:101860002403A0912503B09126033091220323E0A5
:10187000230F2D3720F40196A11DB11D05C026E8C8
:10188000230F0296A11DB11D2093220380932303F1
:1018900090932403A0932503B093260380912703FC
:1018A00090912803A0912903B0912A030196A11DCC
:1018B000B11D8093270390932803A0932903B0932D
:1018C0002A03BF91AF919F918F913F912F910F90DC
:1018D0000FBE0F901F9018952FB7F89460912303B7
:1018E0007091240380912503909126032FBF0895C2
:1018F0003FB7F8948091270390912803A091290382
:10190000B0912A0326B5A89B05C02F3F19F0019678
:10191000A11DB11D3FBF6627782F892F9A2F620F17
:10192000711D811D911D42E0660F771F881F991F51
:101930004A95D1F70895CF92DF92EF92FF92CF931D
:10194000DF936B017C010E94780CEB01C114D10480
:10195000E104F10489F00E94E9130E94780C6C1BE9
:101960007D0B683E734090F381E0C81AD108E1080E
:10197000F108C851DC4FEACFDF91CF91FF90EF9093
:10198000DF90CF9008958230910538F0880F991F2D
:10199000880F991F05970197F1F70895789484B5FA
:1019A000826084BD84B5816084BD85B5826085BD5B
:1019B00085B5816085BDEEE6F0E080818160808341
:1019C000E1E8F0E010828081826080838081816024
:1019D0008083E0E8F0E0808181608083E1EBF0E0EB
:1019E000808184608083E0EBF0E08081816080838F
:1019F000EAE7F0E080818460808380818260808378
:101A00008081816080838081806880831092C100A2
:101A10000895833081F028F4813099F08230A1F06C
:101A200008958730A9F08830B9F08430D1F48091DE
:101A300080008F7D03C0809180008F77809380002D
:101A4000089584B58F7702C084B58F7D84BD0895D5
:101A50008091B0008F7703C08091B0008F7D80931C
:101A6000B0000895CF93DF9390E0FC01E656FB4F62
:101A70002491FC01E255FB4F8491882349F190E0C9
:101A8000880F991FFC01EA52FB4FA591B491845332
:101A90009B4FFC01C591D4919FB7611108C0F89488
:101AA0008C91209582238C93888182230AC0623096
:101AB00051F4F8948C91322F309583238C93888144
:101AC000822B888304C0F8948C91822B8C939FBFC7
:101AD000DF91CF9108950F931F93CF93DF931F92C0
:101AE000CDB7DEB7282F30E0F901EA57FB4F8491DC
:101AF000F901E656FB4F1491F901E255FB4F0491B1
:101B00000023C9F0882321F069830E94090D6981AF
:101B1000E02FF0E0EE0FFF1FE453FB4FA591B491CF
:101B20009FB7F8948C91611103C01095812301C077
:101B3000812B8C939FBF0F90DF91CF911F910F91BD
:101B40000895CF93DF93282F30E0F901EA57FB4F38
:101B50008491F901E656FB4FD491F901E255FB4F10
:101B6000C491CC2391F081110E94090DEC2FF0E07B
:101B7000EE0FFF1FEE53FB4FA591B4912C912D2337
:101B800081E090E021F480E002C080E090E0DF910D
:101B9000CF910895FC01818D228D90E0805C9F4F54
:101BA000821B91098F7399270895FC01918D828D75
:101BB000981731F0828DE80FF11D858D90E0089522
:101BC0008FEF9FEF0895FC01918D828D981761F042
:101BD000828DDF01A80FB11D5D968C91928D9F5F64
:101BE0009F73928F90E008958FEF9FEF089587E69F
:101BF0009FE0892B49F080E090E0892B29F00E943A
:101C0000670F81110C9400000895FC01848DDF01A1
:101C1000A80FB11DA35ABF4F2C91848D90E001965F
:101C20008F739927848FA689B7892C93A089B1894E
:101C30008C9180648C93938D848D981306C0028858
:101C4000F389E02D80818F7D80830895CF93DF938A
:101C5000EC01888D8823C9F0EA89FB89808185FDA4
:101C600005C0A889B9898C9186FD0FC00FB607FC05
:101C7000F5CF808185FFF2CFA889B9898C9185FF46
:101C8000EDCFCE010E94050EE7CFDF91CF910895F1
:101C9000CF92DF92FF920F931F93CF93DF931F9208
:101CA000CDB7DEB76C0181E0D60158968C9358977A
:101CB0005B969C915B975C968C915C97981307C0A0
:101CC0005096ED91FC915197808185FD2EC0F601D3
:101CD000038D10E00F5F1F4F0F731127F02EF601D9
:101CE000848DF81211C00FB607FCF9CFD6015096BB
:101CF000ED91FC915197808185FFF1CFC6016983F9
:101D00000E94050E6981EBCF838DE80FF11DE35A28
:101D1000FF4F6083D6015B960C935B975296ED91D3
:101D2000FC915397808180620CC0D6015696ED914C
:101D3000FC91579760835096ED91FC91519780816B
:101D40008064808381E090E00F90DF91CF911F91BC
:101D50000F91FF90DF90CF900895BF92CF92DF92C6
:101D6000EF92FF92CF93DF93EC016A017B01B22ED9
:101D7000E889F98982E08083411581EE5807610581
:101D80007105A1F060E079E08DE390E0A701960194
:101D90000E94FE132150310941095109569547957A
:101DA00037952795211580E1380798F0E889F9895A
:101DB000108260E874E88EE190E0A70196010E942D
:101DC000FE13215031094109510956954795379520
:101DD0002795EC85FD853083EE85FF852083188E61
:101DE000EC89FD89B082EA89FB89808180618083EA
:101DF000EA89FB89808188608083EA89FB89808108
:101E000080688083EA89FB8980818F7D8083DF9170
:101E1000CF91FF90EF90DF90CF90BF9008951F92E9
:101E20000F920FB60F9211242F938F939F93EF93DE
:101E3000FF93E0913B03F0913C038081E0914103EB
:101E4000F091420382FD12C09081809144038F5F24
:101E50008F7320914503821751F0E0914403F0E025
:101E6000E55DFC4F958F8093440301C08081FF9115
:101E7000EF919F918F912F910F900FBE0F901F9018
:101E800018951F920F920FB60F9211242F933F9324
:101E90004F935F936F937F938F939F93AF93BF9372
:101EA000EF93FF938BE293E00E94050EFF91EF9179
:101EB000BF91AF919F918F917F916F915F914F9162
:101EC0003F912F910F900FBE0F901F9018958BE2AE
:101ED00093E00E94CA0D21E0892B09F420E0822FB3
:101EE000089510922E0310922D0388EE93E0A0E047
:101EF000B0E080932F0390933003A0933103B0930D
:101F0000320383EA91E090932C0380932B0385ECBA
:101F100090E0909338038093370384EC90E09093A3
:101F20003A038093390380EC90E090933C038093D4
:101F30003B0381EC90E090933E0380933D0382EC61
:101F400090E09093400380933F0386EC90E0909361
:101F50004203809341031092440310924503109270
:101F60004603109247030895CF92DF92EF92FF92BB
:101F70000F931F93CF93DF937C016A01EB0100E085
:101F800010E00C151D0571F06991D701ED91FC91E0
:101F90000190F081E02DC7010995892B19F00F5FA1
:101FA0001F4FEFCFC801DF91CF911F910F91FF908D
:101FB000EF90DF90CF9008956115710581F0DB01FE
:101FC0000D900020E9F7AD0141505109461B570B18
:101FD000DC01ED91FC910280F381E02D099480E019
:101FE00090E00895EF92FF920F931F93CF93DF93AA
:101FF0008C017B01C0E0D0E0F701EC0FFD1F649184
:10200000662359F0F801A081B181ED91FC91C801DE
:102010000995892B11F02196EFCFCE01DF91CF9159
:102020001F910F91FF90EF900895DC01ED91FC91CD
:10203000DB0114964D915C9115976D917C91028016
:10204000F381E02D09940C94DC0FDC01ED91FC91FF
:102050000190F081E02D09946FEA71E00C94DC0F9F
:102060000F931F93CF93DF93EC010E94F20F8C012B
:10207000CE010E942C10800F911FDF91CF911F91F4
:102080000F9108950F931F93CF93DF93EC010E945C
:1020900015108C01CE010E942C10800F911FDF9132
:1020A000CF911F910F9108950F931F93CF93DF93BB
:1020B000EC010E94DC0F8C01CE010E942C10800FDD
:1020C000911FDF91CF911F910F9108958F929F9251
:1020D000AF92BF92CF92DF92EF92FF920F931F9336
:1020E000CF93DF93CDB7DEB7A1970FB6F894DEBFDD
:1020F0000FBECDBF7C01C42EE52FCB01D22E19A27D
:1021000021E02D1510F02AE0D22E8E010F5D1F4F19
:102110008D2C912CA12CB12C6C2D7E2FA50194011E
:102120000E94FE138C2DD29E80191124015011099A
:102130008A3014F4805D01C0895CF8018083211528
:1021400031054105510521F0C22EE32FCA01E4CF2C
:10215000B801C7010E94DC0FA1960FB6F894DEBF4C
:102160000FBECDBFDF91CF911F910F91FF90EF90E8
:10217000DF90CF90BF90AF909F908F900895CF92B7
:10218000DF92EF92FF920F931F93CF93DF93EC01B7
:102190006A017B012115310579F4E881F98101900B
:1021A000F081E02D642FDF91CF911F910F91FF906F
:1021B000EF90DF90CF9009942A303105E9F477FF52
:1021C0001AC06DE20E9425108C0144275527BA01E0
:1021D0004C195D096E097F092AE0CE010E94661044
:1021E000800F911FDF91CF911F910F91FF90EF9082
:1021F000DF90CF9008952AE0B701A601CE01DF91CC
:10220000CF911F910F91FF90EF90DF90CF900C94A2
:1022100066100F931F93CF93DF93EC019A01AB01EC
:10222000662757FD6095762F0E94BF108C01CE0166
:102230000E942C10800F911FDF91CF911F910F9161
:1022400008952115310541F4DC01ED91FC910190D7
:10225000F081E02D642F09940C9466109A01462FAA
:1022600050E060E070E00C9421110F931F93CF9326
:10227000DF93EC019A01462F50E060E070E00E948D
:1022800021118C01CE010E942C10800F911FDF9133
:10229000CF911F910F910895FC01808191810C9441
:1022A000D214CF93DF93EC0188819981009711F0CC
:1022B0000E94D214198218821D821C821B821A82EB
:1022C000DF91CF9108950F931F93CF93DF93EC018C
:1022D0008B016F5F7F4F888199810E946115009704
:1022E00031F0998388831B830A8381E001C080E0F9
:1022F000DF91CF911F910F910895CF93DF93EC0160
:1023000088819981892B29F08A819B81861797077B
:1023100060F4CE010E946311882341F08C819D817D
:10232000892B19F4E881F981108281E0DF91CF9146
:102330000895EF92FF920F931F93CF93DF93EC01D9
:102340007B018A01BA010E947D11811104C0CE0176
:102350000E94511107C01D830C83B70188819981A8
:102360000E947E16CE01DF91CF911F910F91FF90B9
:10237000EF900895FC01118210821382128215825F
:1023800014826115710559F0FB0101900020E9F7F5
:10239000AF0141505109461B570B0C9499110895F8
:1023A000EF92FF920F931F93CF93DF93EC017B018A
:1023B0008A01BA010E947D11811104C0CE010E94E0
:1023C000511107C01D830C83B701888199810E9438
:1023D0005116CE01DF91CF911F910F91FF90EF9099
:1023E00008950F931F93CF93DF938C01EB01FC01B2
:1023F00080819181009799F0428153812C813D81A8
:102400004217530750F0688179810E947E168C81B3
:102410009D81F8019583848313C00E94D214888122
:102420009981F801918380838A819B819383828340
:102430008C819D8195838483198218821B821A82E4
:102440001D821C82DF91CF911F910F910895CF9330
:10245000DF93EC01FB018617970761F060817181C2
:102460006115710529F0448155810E94991102C0BE
:102470000E945111CE01DF91CF910895FC0111828C
:10248000108213821282158214820C942712CF9329
:10249000DF93EC018617970711F00E94F111CE012E
:1024A000DF91CF910895CF93DF93EC016115710512
:1024B00061F0FB0101900020E9F7AF0141505109A3
:1024C000461B570B0E94991102C00E945111CE0168
:1024D000DF91CF910895CF93DF9300D0CDB7DEB7D2
:1024E000FC01118210821382128215821482698388
:1024F0001A82BE016F5F7F4F0E9453120F900F90A0
:10250000DF91CF9108950F931F93CF93DF9300D066
:10251000CDB7DEB78C016115710561F0CB01698320
:102520007A830E945816AC0169817A81C8010E94A1
:10253000D01102C00E945111C8010F900F90DF917D
:10254000CF911F910F910895FC0111821082138287
:102550001282158214820C948312EF92FF920F93D1
:102560001F93CF93DF93EC017B010C811D816115DB
:10257000710511F480E016C04115510591F0040F6A
:10258000151FB8010E947D118823A1F3288139818C
:102590008C819D81B701820F931F0E947E161D833F
:1025A0000C8381E0DF91CF911F910F91FF90EF900D
:1025B0000895FB0144815581608171810C94AD12B5
:1025C000FC0124813581232B31F421E06115710553
:1025D000A1F0FB0108C0FC018081918161157105AA
:1025E00031F421E0FC018081882339F005C00E948C
:1025F000751621E0892B09F020E0822F0895EF92D3
:10260000FF920F931F93CF93DF938617970731F1B4
:10261000FC0124813581FB01448155812417350754
:10262000F9F4232BD9F0FC0100811181FB01C08159
:10263000D181F80181918F01882381F0992787FD4D
:1026400090950E9449167C018991992787FD909564
:102650000E944916E816F90661F302C081E001C044
:1026600080E0DF91CF911F910F91FF90EF9008953F
:10267000FC01848195816817790720F4808191811C
:10268000009729F41092C80388EC93E00895860F10
:10269000971F08950F931F93CF93DF93EB0141157D
:1026A0005105E9F02097D9F0FC0164817581261766
:1026B0003707A0F4621B730B8A01015011096017E0
:1026C000710708F48B01FC0160817181620F731F37
:1026D000A801CE010E948516C00FD11F1882DF917C
:1026E000CF911F910F910895CF93DF93FC018481C7
:1026F00095814817590778F4C081D181772767FD04
:102700007095CE01840F951F0E946A16009719F0EC
:102710008C1B9D0B02C08FEF9FEFDF91CF9108952F
:1027200040E050E00C947413BF92CF92DF92EF928E
:10273000FF920F931F93CF93DF936C017B01EA010C
:1027400089012417350720F48D2FE901042F182F54
:1027500065E871E0C6010E94BA11D70114968D9107
:102760009C911597C817D907C8F48017910708F4EA
:102770008C01D701ED91FC911197E00FF11FB08012
:1027800010826D917C916C0F7D1FC6010E945312C7
:10279000D701ED91FC91E00FF11FB082C601DF91EE
:1027A000CF911F910F91FF90EF90DF90CF90BF904E
:1027B000089508950E94CE0C0E94D9130E94C30868
:1027C000C7EFDDE00E9455092097E1F30E94F70D65
:1027D000F9CF089597FB072E16F4009407D077FDE4
:1027E00009D00E94201407FC05D03EF490958195F5
:1027F0009F4F0895709561957F4F0895A1E21A2E1D
:10280000AA1BBB1BFD010DC0AA1FBB1FEE1FFF1F94
:10281000A217B307E407F50720F0A21BB30BE40BE4
:10282000F50B661F771F881F991F1A9469F760952B
:102830007095809590959B01AC01BD01CF010895E5
:10284000AA1BBB1B51E107C0AA1FBB1FA617B707D6
:1028500010F0A61BB70B881F991F5A95A9F78095F2
:102860009095BC01CD010895EE0FFF1F0590F491E6
:10287000E02D0994CF93DF938230910510F482E02C
:1028800090E0E091CB03F091CC0320E030E0A0E0B9
:10289000B0E0309739F14081518148175907B8F0BD
:1028A0004817590771F482819381109729F0139684
:1028B0009C938E9312972CC09093CC038093CB0360
:1028C00027C02115310531F04217530718F0A9012F
:1028D000DB0101C0EF019A01BD01DF010280F3813C
:1028E000E02DD7CF21153105F9F0281B390B243005
:1028F000310580F48A819B816115710521F0FB010E
:102900009383828304C09093CC038093CB03FE0116
:10291000329644C0FE01E20FF31F8193919322503F
:102920003109398328833AC02091C9033091CA0301
:10293000232B41F420910201309103013093CA030B
:102940002093C90320910001309101012115310527
:1029500041F42DB73EB74091040150910501241B6D
:10296000350BE091C903F091CA03E217F307A0F415
:102970002E1B3F0B2817390778F0AC014E5F5F4FD5
:102980002417350748F04E0F5F1F5093CA0340933A
:10299000C9038193919302C0E0E0F0E0CF01DF91A1
:1029A000CF910895CF93DF93009709F487C0FC017E
:1029B000329713821282C091CB03D091CC0320971F
:1029C00081F420813181280F391F8091C9039091B2
:1029D000CA038217930779F5F093CA03E093C903FA
:1029E0006DC0DE0120E030E0AE17BF0750F4129654
:1029F0004D915C9113979D014115510509F1DA0143
:102A0000F3CFB383A28340815181840F951F8A172E
:102A10009B0771F48D919C911197840F951F0296DD
:102A20009183808312968D919C91139793838283D7
:102A30002115310529F4F093CC03E093CB033EC07C
:102A4000D9011396FC93EE9312974D915D91A40FCB
:102A5000B51FEA17FB0779F480819181840F951FD8
:102A60000296D90111969C938E938281938113963D
:102A70009C938E931297E0E0F0E08A819B8100970F
:102A800019F0FE01EC01F9CFCE01029628813981BF
:102A9000820F931F2091C9033091CA032817390769
:102AA00069F4309729F41092CC031092CB0302C042
:102AB00013821282D093CA03C093C903DF91CF91CE
:102AC0000895A0E0B0E0E7E6F5E10C94B616EC015D
:102AD000CB01209719F40E943A14B8C0FE01E60F0A
:102AE000F71F9E0122503109E217F30708F4ACC02A
:102AF000D9010D911C91119706171707B8F00530F1
:102B0000110508F49FC0A801445051094617570702
:102B100008F498C002501109061B170B019311937A
:102B20006D937C93CF010E94D2148CC05B01A01ADC
:102B3000B10A4E01800E911EA091CB03B091CC033F
:102B4000612C712C60E070E0109709F449C0A81561
:102B5000B905C9F5ED90FC901197670142E0C40EEC
:102B6000D11CCA14DB0478F147018A189B08640160
:102B700042E0C40ED11C1296BC9012971396AC91F1
:102B8000B5E0CB16D10440F0B282A383918280825B
:102B9000D9018D939C9309C00E5F1F4F0E0D1F1D11
:102BA000F90111830083EB2DFA2F6115710531F0C6
:102BB000DB011396FC93EE93129744C0F093CC0381
:102BC000E093CB033FC06D917C9111976616770619
:102BD00008F43B01BD0112960D90BC91A02DB4CF1D
:102BE0006091C9037091CA0368157905E9F4681604
:102BF0007906D0F440910001509101014115510531
:102C000041F44DB75EB76091040170910501461B18
:102C1000570BE417F507C0F4F093CA03E093C90318
:102C2000F901918380830EC00E943A147C010097C1
:102C300059F0A801BE010E946116CE010E94D21473
:102C4000C70104C0CE0102C080E090E0CDB7DEB77E
:102C5000EEE00C94D216FC0188279927E894219184
:102C60002032E9F3293010F02E30C8F32B3241F036
:102C70002D3239F4689404C00E949416820F911D7D
:102C8000219120532A30C0F31EF4909581959F4FD7
:102C900008959111089581548A5108F4805E855AEF
:102CA0000895FB01DC0105900D920020E1F70895E5
:102CB000FC0105900020E9F7809590958E0F9F1FED
:102CC0000895FB01DC0102C001900D92415050407B
:102CD000D8F70895FC018191861721F08823D9F750
:102CE000992708953197CF010895FB01DC018D915B
:102CF000019080190110D9F3990B0895FB01DC01B3
:102D000001900D920020E1F70895FB01DC01415094
:102D1000504048F001900D920020C9F701C01D926B
:102D200041505040E0F708957AE0979F902D879F9B
:102D3000802D910D11240895F999FECF92BD81BD8A
:102D4000F89A992780B50895262FF999FECF1FBAD2
:102D500092BD81BD20BD0FB6F894FA9AF99A0FBEC4
:102D6000019608952F923F924F925F926F927F92B9
:102D70008F929F92AF92BF92CF92DF92EF92FF928B
:102D80000F931F93CF93DF93CDB7DEB7CA1BDB0B37
:102D90000FB6F894DEBF0FBECDBF09942A883988DC
:102DA00048885F846E847D848C849B84AA84B984E3
:102DB000C884DF80EE80FD800C811B81AA81B981EF
:102DC000CE0FD11D0FB6F894DEBF0FBECDBFED0103
:102DD000089514E0C6EED4E004C0FE010E9436144B
:0C2DE0002296C83ED107C9F7F894FFCF37
:102DEC000000CD0380000408090A0B302E322E306F
:102DFC00004E6F7620323520323031352031323A68
:102E0C0034353A333100436C656172696E672074F6
:102E1C00686520454550524F4D206164647265735E
:102E2C00736573004D415820434F4D4D414E4453F3
:102E3C002065786365656465640048454C500043C3
:102E4C004C520044554D5000493243004649440011
:102E5C0043494400496E76616C696420636F6D6D03
:102E6C00616E640009003A2000302E312E310000D2
:102E7C000000003D0A100AB609BE09D109E009009C
:102E8C00000000480EB40FCA0DE30DD50D260E0D33
:102E9C000A006E616E00696E66006F7666002E0029
:00000001FF
